{
  "contractName": "Doctor",
  "abi": [
    {
      "inputs": [],
      "name": "docInfo",
      "outputs": [
        {
          "internalType": "string",
          "name": "",
          "type": "string"
        },
        {
          "internalType": "address[]",
          "name": "",
          "type": "address[]"
        }
      ],
      "stateMutability": "view",
      "type": "function"
    },
    {
      "inputs": [
        {
          "internalType": "string",
          "name": "_name",
          "type": "string"
        }
      ],
      "name": "newDoctor",
      "outputs": [],
      "stateMutability": "nonpayable",
      "type": "function"
    }
  ],
  "bytecode": "0x608060405234801561001057600080fd5b50610e1f806100206000396000f3fe608060405234801561001057600080fd5b50600436106100365760003560e01c806347ccf3571461003b578063a821066214610057575b600080fd5b6100556004803603810190610050919061087b565b610076565b005b61005f610405565b60405161006d929190610a3c565b60405180910390f35b60008060003373ffffffffffffffffffffffffffffffffffffffff1673ffffffffffffffffffffffffffffffffffffffff1681526020019081526020016000206040518060600160405290816000820180546100d190610aa2565b80601f01602080910402602001604051908101604052809291908181526020018280546100fd90610aa2565b801561014a5780601f1061011f5761010080835404028352916020019161014a565b820191906000526020600020905b81548152906001019060200180831161012d57829003601f168201915b505050505081526020016001820160009054906101000a900473ffffffffffffffffffffffffffffffffffffffff1673ffffffffffffffffffffffffffffffffffffffff1673ffffffffffffffffffffffffffffffffffffffff1681526020016002820180548060200260200160405190810160405280929190818152602001828054801561022e57602002820191906000526020600020905b8160009054906101000a900473ffffffffffffffffffffffffffffffffffffffff1673ffffffffffffffffffffffffffffffffffffffff16815260200190600101908083116101e4575b505050505081525050905060405160200161024890610b04565b604051602081830303815290604052805190602001208260405160200161026f9190610b4a565b604051602081830303815290604052805190602001200361028f57600080fd5b600073ffffffffffffffffffffffffffffffffffffffff16816020015173ffffffffffffffffffffffffffffffffffffffff16146102cc57600080fd5b60405180606001604052808381526020013373ffffffffffffffffffffffffffffffffffffffff168152602001600067ffffffffffffffff81111561031457610313610750565b5b6040519080825280602002602001820160405280156103425781602001602082028036833780820191505090505b508152506000803373ffffffffffffffffffffffffffffffffffffffff1673ffffffffffffffffffffffffffffffffffffffff16815260200190815260200160002060008201518160000190816103999190610d17565b5060208201518160010160006101000a81548173ffffffffffffffffffffffffffffffffffffffff021916908373ffffffffffffffffffffffffffffffffffffffff16021790555060408201518160020190805190602001906103fd92919061067a565b509050505050565b60608033600073ffffffffffffffffffffffffffffffffffffffff166000808373ffffffffffffffffffffffffffffffffffffffff1673ffffffffffffffffffffffffffffffffffffffff16815260200190815260200160002060010160009054906101000a900473ffffffffffffffffffffffffffffffffffffffff1673ffffffffffffffffffffffffffffffffffffffff16116104a357600080fd5b60008060003373ffffffffffffffffffffffffffffffffffffffff1673ffffffffffffffffffffffffffffffffffffffff1681526020019081526020016000206040518060600160405290816000820180546104fe90610aa2565b80601f016020809104026020016040519081016040528092919081815260200182805461052a90610aa2565b80156105775780601f1061054c57610100808354040283529160200191610577565b820191906000526020600020905b81548152906001019060200180831161055a57829003601f168201915b505050505081526020016001820160009054906101000a900473ffffffffffffffffffffffffffffffffffffffff1673ffffffffffffffffffffffffffffffffffffffff1673ffffffffffffffffffffffffffffffffffffffff1681526020016002820180548060200260200160405190810160405280929190818152602001828054801561065b57602002820191906000526020600020905b8160009054906101000a900473ffffffffffffffffffffffffffffffffffffffff1673ffffffffffffffffffffffffffffffffffffffff1681526020019060010190808311610611575b5050505050815250509050806000015181604001519350935050509091565b8280548282559060005260206000209081019282156106f3579160200282015b828111156106f25782518260006101000a81548173ffffffffffffffffffffffffffffffffffffffff021916908373ffffffffffffffffffffffffffffffffffffffff1602179055509160200191906001019061069a565b5b5090506107009190610704565b5090565b5b8082111561071d576000816000905550600101610705565b5090565b6000604051905090565b600080fd5b600080fd5b600080fd5b600080fd5b6000601f19601f8301169050919050565b7f4e487b7100000000000000000000000000000000000000000000000000000000600052604160045260246000fd5b6107888261073f565b810181811067ffffffffffffffff821117156107a7576107a6610750565b5b80604052505050565b60006107ba610721565b90506107c6828261077f565b919050565b600067ffffffffffffffff8211156107e6576107e5610750565b5b6107ef8261073f565b9050602081019050919050565b82818337600083830152505050565b600061081e610819846107cb565b6107b0565b90508281526020810184848401111561083a5761083961073a565b5b6108458482856107fc565b509392505050565b600082601f83011261086257610861610735565b5b813561087284826020860161080b565b91505092915050565b6000602082840312156108915761089061072b565b5b600082013567ffffffffffffffff8111156108af576108ae610730565b5b6108bb8482850161084d565b91505092915050565b600081519050919050565b600082825260208201905092915050565b60005b838110156108fe5780820151818401526020810190506108e3565b8381111561090d576000848401525b50505050565b600061091e826108c4565b61092881856108cf565b93506109388185602086016108e0565b6109418161073f565b840191505092915050565b600081519050919050565b600082825260208201905092915050565b6000819050602082019050919050565b600073ffffffffffffffffffffffffffffffffffffffff82169050919050565b60006109a382610978565b9050919050565b6109b381610998565b82525050565b60006109c583836109aa565b60208301905092915050565b6000602082019050919050565b60006109e98261094c565b6109f38185610957565b93506109fe83610968565b8060005b83811015610a2f578151610a1688826109b9565b9750610a21836109d1565b925050600181019050610a02565b5085935050505092915050565b60006040820190508181036000830152610a568185610913565b90508181036020830152610a6a81846109de565b90509392505050565b7f4e487b7100000000000000000000000000000000000000000000000000000000600052602260045260246000fd5b60006002820490506001821680610aba57607f821691505b602082108103610acd57610acc610a73565b5b50919050565b600081905092915050565b50565b6000610aee600083610ad3565b9150610af982610ade565b600082019050919050565b6000610b0f82610ae1565b9150819050919050565b6000610b24826108c4565b610b2e8185610ad3565b9350610b3e8185602086016108e0565b80840191505092915050565b6000610b568284610b19565b915081905092915050565b60008190508160005260206000209050919050565b60006020601f8301049050919050565b600082821b905092915050565b600060088302610bc37fffffffffffffffffffffffffffffffffffffffffffffffffffffffffffffffff82610b86565b610bcd8683610b86565b95508019841693508086168417925050509392505050565b6000819050919050565b6000819050919050565b6000610c14610c0f610c0a84610be5565b610bef565b610be5565b9050919050565b6000819050919050565b610c2e83610bf9565b610c42610c3a82610c1b565b848454610b93565b825550505050565b600090565b610c57610c4a565b610c62818484610c25565b505050565b5b81811015610c8657610c7b600082610c4f565b600181019050610c68565b5050565b601f821115610ccb57610c9c81610b61565b610ca584610b76565b81016020851015610cb4578190505b610cc8610cc085610b76565b830182610c67565b50505b505050565b600082821c905092915050565b6000610cee60001984600802610cd0565b1980831691505092915050565b6000610d078383610cdd565b9150826002028217905092915050565b610d20826108c4565b67ffffffffffffffff811115610d3957610d38610750565b5b610d438254610aa2565b610d4e828285610c8a565b600060209050601f831160018114610d815760008415610d6f578287015190505b610d798582610cfb565b865550610de1565b601f198416610d8f86610b61565b60005b82811015610db757848901518255600182019150602085019450602081019050610d92565b86831015610dd45784890151610dd0601f891682610cdd565b8355505b6001600288020188555050505b50505050505056fea26469706673582212207aadfb5bfe639cefdbd0522911e75c6589e4f00050ff189270cfdb3fe0f8f6cc64736f6c634300080f0033",
  "immutableReferences": {},
  "source": "//SPDX-License-Identifier: UNLICENSED\npragma solidity ^0.8.0;\n\ncontract Doctor {\n    struct doc {\n        string name;\n        address doc_addr;\n        address[] patients;\n    }\n\n    mapping(address => doc) internal doctorsList;\n    mapping(address => mapping(address => uint256)) docToPat;\n\n    modifier checkDoc(address id) {\n        require(doctorsList[id].doc_addr > address(0));\n        _;\n    }\n\n    function docInfo()\n        public\n        view\n        checkDoc(msg.sender)\n        returns (string memory, address[] memory)\n    {\n        doc memory d = doctorsList[msg.sender];\n        return (d.name, d.patients);\n    }\n\n    function newDoctor(string memory _name) public {\n        doc memory d = doctorsList[msg.sender];\n        require(\n            keccak256(abi.encodePacked(_name)) !=\n                keccak256(abi.encodePacked(\"\"))\n        );\n        require(d.doc_addr == address(0));\n        doctorsList[msg.sender] = doc({\n            name: _name,\n            doc_addr: msg.sender,\n            patients: new address[](0)\n        });\n    }\n}\n",
  "sourcePath": "/mnt/776bb667-73ee-4fb6-b4b7-3537a71ffebf/Dev/Blockchain/HealthRecords1/contracts/Doctor.sol",
  "compiler": {
    "name": "solc",
    "version": "0.8.15+commit.e14f2714.Emscripten.clang"
  },
  "schemaVersion": "3.4.9",
  "updatedAt": "2022-09-05T22:02:05.241Z",
  "devdoc": {
    "kind": "dev",
    "methods": {},
    "version": 1
  },
  "userdoc": {
    "kind": "user",
    "methods": {},
    "version": 1
  }
}