{
  "contractName": "HealthRecords",
  "abi": [
    {
      "inputs": [],
      "stateMutability": "nonpayable",
      "type": "constructor"
    },
    {
      "anonymous": false,
      "inputs": [
        {
          "indexed": true,
          "internalType": "address",
          "name": "previousOwner",
          "type": "address"
        },
        {
          "indexed": true,
          "internalType": "address",
          "name": "newOwner",
          "type": "address"
        }
      ],
      "name": "OwnershipTransferred",
      "type": "event"
    },
    {
      "inputs": [],
      "name": "docInfo",
      "outputs": [
        {
          "internalType": "string",
          "name": "",
          "type": "string"
        },
        {
          "internalType": "address[]",
          "name": "",
          "type": "address[]"
        }
      ],
      "stateMutability": "view",
      "type": "function"
    },
    {
      "inputs": [
        {
          "internalType": "string",
          "name": "_name",
          "type": "string"
        }
      ],
      "name": "newDoctor",
      "outputs": [],
      "stateMutability": "nonpayable",
      "type": "function"
    },
    {
      "inputs": [
        {
          "internalType": "string",
          "name": "_name",
          "type": "string"
        },
        {
          "internalType": "uint8",
          "name": "_age",
          "type": "uint8"
        }
      ],
      "name": "newPatient",
      "outputs": [],
      "stateMutability": "nonpayable",
      "type": "function"
    },
    {
      "inputs": [],
      "name": "owner",
      "outputs": [
        {
          "internalType": "address",
          "name": "",
          "type": "address"
        }
      ],
      "stateMutability": "view",
      "type": "function"
    },
    {
      "inputs": [],
      "name": "patInfo",
      "outputs": [
        {
          "internalType": "string",
          "name": "",
          "type": "string"
        },
        {
          "internalType": "uint8",
          "name": "",
          "type": "uint8"
        },
        {
          "internalType": "address[]",
          "name": "",
          "type": "address[]"
        },
        {
          "internalType": "bytes32[]",
          "name": "",
          "type": "bytes32[]"
        }
      ],
      "stateMutability": "view",
      "type": "function"
    },
    {
      "inputs": [],
      "name": "renounceOwnership",
      "outputs": [],
      "stateMutability": "nonpayable",
      "type": "function"
    },
    {
      "inputs": [
        {
          "internalType": "address",
          "name": "newOwner",
          "type": "address"
        }
      ],
      "name": "transferOwnership",
      "outputs": [],
      "stateMutability": "nonpayable",
      "type": "function"
    },
    {
      "inputs": [
        {
          "internalType": "address",
          "name": "_user",
          "type": "address"
        }
      ],
      "name": "checkUser",
      "outputs": [
        {
          "internalType": "string",
          "name": "",
          "type": "string"
        },
        {
          "internalType": "string",
          "name": "",
          "type": "string"
        }
      ],
      "stateMutability": "view",
      "type": "function"
    },
    {
      "inputs": [
        {
          "internalType": "address",
          "name": "docid",
          "type": "address"
        }
      ],
      "name": "docToPatAccess",
      "outputs": [],
      "stateMutability": "nonpayable",
      "type": "function"
    },
    {
      "inputs": [
        {
          "internalType": "string",
          "name": "_fname",
          "type": "string"
        },
        {
          "internalType": "string",
          "name": "_ftype",
          "type": "string"
        },
        {
          "internalType": "bytes32",
          "name": "_fileHash",
          "type": "bytes32"
        }
      ],
      "name": "addRecord",
      "outputs": [],
      "stateMutability": "nonpayable",
      "type": "function"
    },
    {
      "inputs": [
        {
          "internalType": "address",
          "name": "pat_addr",
          "type": "address"
        }
      ],
      "name": "getPatientForDoc",
      "outputs": [
        {
          "internalType": "string",
          "name": "",
          "type": "string"
        },
        {
          "internalType": "uint8",
          "name": "",
          "type": "uint8"
        },
        {
          "internalType": "address",
          "name": "",
          "type": "address"
        },
        {
          "internalType": "bytes32[]",
          "name": "",
          "type": "bytes32[]"
        }
      ],
      "stateMutability": "view",
      "type": "function"
    },
    {
      "inputs": [
        {
          "internalType": "address",
          "name": "docid",
          "type": "address"
        },
        {
          "internalType": "address",
          "name": "patid",
          "type": "address"
        },
        {
          "internalType": "bytes32",
          "name": "fileHash",
          "type": "bytes32"
        }
      ],
      "name": "getFileForDoc",
      "outputs": [
        {
          "internalType": "string",
          "name": "",
          "type": "string"
        },
        {
          "internalType": "string",
          "name": "",
          "type": "string"
        }
      ],
      "stateMutability": "view",
      "type": "function"
    },
    {
      "inputs": [
        {
          "internalType": "address",
          "name": "patid",
          "type": "address"
        },
        {
          "internalType": "bytes32",
          "name": "fileHash",
          "type": "bytes32"
        }
      ],
      "name": "getFileForPat",
      "outputs": [
        {
          "internalType": "string",
          "name": "",
          "type": "string"
        },
        {
          "internalType": "string",
          "name": "",
          "type": "string"
        }
      ],
      "stateMutability": "view",
      "type": "function"
    }
  ],
  "bytecode": "0x60806040523480156200001157600080fd5b5062000032620000266200007960201b60201c565b6200008160201b60201c565b33600760006101000a81548173ffffffffffffffffffffffffffffffffffffffff021916908373ffffffffffffffffffffffffffffffffffffffff16021790555062000147565b600033905090565b6000600660009054906101000a900473ffffffffffffffffffffffffffffffffffffffff16905081600660006101000a81548173ffffffffffffffffffffffffffffffffffffffff021916908373ffffffffffffffffffffffffffffffffffffffff1602179055508173ffffffffffffffffffffffffffffffffffffffff168173ffffffffffffffffffffffffffffffffffffffff167f8be0079c531659141344cd1fd0a4f28419497f9722a3daafe3b4186f6b6457e060405160405180910390a35050565b613e1180620001576000396000f3fe608060405234801561001057600080fd5b50600436106100cf5760003560e01c806365a1c77c1161008c578063a821066211610066578063a821066214610216578063bb02ac7d14610235578063bb4af85f14610256578063f2fde38b14610272576100cf565b806365a1c77c146101d2578063715018a6146101ee5780638da5cb5b146101f8576100cf565b8063026d4e5c146100d45780631e9d48cf146100f0578063298e04061461012157806347ccf357146101525780634d0929771461016e5780635a6208861461019f575b600080fd5b6100ee60048036038101906100e99190613234565b61028e565b005b61010a6004803603810190610105919061331d565b6106ad565b6040516101189291906133d2565b60405180910390f35b61013b60048036038101906101369190613409565b610bde565b6040516101499291906133d2565b60405180910390f35b61016c6004803603810190610167919061345c565b61108c565b005b610188600480360381019061018391906134a5565b61141b565b6040516101969291906133d2565b60405180910390f35b6101b960048036038101906101b4919061331d565b61182c565b6040516101c994939291906135ce565b60405180910390f35b6101ec60048036038101906101e7919061331d565b611c52565b005b6101f6612355565b005b610200612369565b60405161020d9190613621565b60405180910390f35b61021e612393565b60405161022c9291906136fa565b60405180910390f35b61023d612608565b60405161024d9493929190613731565b60405180910390f35b610270600480360381019061026b91906137b7565b612908565b005b61028c6004803603810190610287919061331d565b612dc4565b005b33600073ffffffffffffffffffffffffffffffffffffffff16600260008373ffffffffffffffffffffffffffffffffffffffff1673ffffffffffffffffffffffffffffffffffffffff16815260200190815260200160002060010160019054906101000a900473ffffffffffffffffffffffffffffffffffffffff1673ffffffffffffffffffffffffffffffffffffffff161161032a57600080fd5b6000600260003373ffffffffffffffffffffffffffffffffffffffff1673ffffffffffffffffffffffffffffffffffffffff1681526020019081526020016000206040518060a001604052908160008201805461038690613842565b80601f01602080910402602001604051908101604052809291908181526020018280546103b290613842565b80156103ff5780601f106103d4576101008083540402835291602001916103ff565b820191906000526020600020905b8154815290600101906020018083116103e257829003601f168201915b505050505081526020016001820160009054906101000a900460ff1660ff1660ff1681526020016001820160019054906101000a900473ffffffffffffffffffffffffffffffffffffffff1673ffffffffffffffffffffffffffffffffffffffff1673ffffffffffffffffffffffffffffffffffffffff168152602001600282018054806020026020016040519081016040528092919081815260200182805480156104ca57602002820191906000526020600020905b8154815260200190600101908083116104b6575b505050505081526020016003820180548060200260200160405190810160405280929190818152602001828054801561055857602002820191906000526020600020905b8160009054906101000a900473ffffffffffffffffffffffffffffffffffffffff1673ffffffffffffffffffffffffffffffffffffffff168152602001906001019080831161050e575b50505050508152505090506000600460003373ffffffffffffffffffffffffffffffffffffffff1673ffffffffffffffffffffffffffffffffffffffff168152602001908152602001600020600085815260200190815260200160002054146105c057600080fd5b6040518060400160405280868152602001858152506005600085815260200190815260200160002060008201518160000190816105fd9190613a29565b5060208201518160010190816106139190613a29565b509050508281606001518260600151518151811061063457610633613afb565b5b60200260200101818152505060018160600151516106529190613b59565b600460003373ffffffffffffffffffffffffffffffffffffffff1673ffffffffffffffffffffffffffffffffffffffff1681526020019081526020016000206000858152602001908152602001600020819055505050505050565b6060806106b8612e47565b6000600260008573ffffffffffffffffffffffffffffffffffffffff1673ffffffffffffffffffffffffffffffffffffffff1681526020019081526020016000206040518060a001604052908160008201805461071490613842565b80601f016020809104026020016040519081016040528092919081815260200182805461074090613842565b801561078d5780601f106107625761010080835404028352916020019161078d565b820191906000526020600020905b81548152906001019060200180831161077057829003601f168201915b505050505081526020016001820160009054906101000a900460ff1660ff1660ff1681526020016001820160019054906101000a900473ffffffffffffffffffffffffffffffffffffffff1673ffffffffffffffffffffffffffffffffffffffff1673ffffffffffffffffffffffffffffffffffffffff1681526020016002820180548060200260200160405190810160405280929190818152602001828054801561085857602002820191906000526020600020905b815481526020019060010190808311610844575b50505050508152602001600382018054806020026020016040519081016040528092919081815260200182805480156108e657602002820191906000526020600020905b8160009054906101000a900473ffffffffffffffffffffffffffffffffffffffff1673ffffffffffffffffffffffffffffffffffffffff168152602001906001019080831161089c575b505050505081525050905060008060008673ffffffffffffffffffffffffffffffffffffffff1673ffffffffffffffffffffffffffffffffffffffff16815260200190815260200160002060405180606001604052908160008201805461094c90613842565b80601f016020809104026020016040519081016040528092919081815260200182805461097890613842565b80156109c55780601f1061099a576101008083540402835291602001916109c5565b820191906000526020600020905b8154815290600101906020018083116109a857829003601f168201915b505050505081526020016001820160009054906101000a900473ffffffffffffffffffffffffffffffffffffffff1673ffffffffffffffffffffffffffffffffffffffff1673ffffffffffffffffffffffffffffffffffffffff16815260200160028201805480602002602001604051908101604052809291908181526020018280548015610aa957602002820191906000526020600020905b8160009054906101000a900473ffffffffffffffffffffffffffffffffffffffff1673ffffffffffffffffffffffffffffffffffffffff1681526020019060010190808311610a5f575b5050505050815250509050600073ffffffffffffffffffffffffffffffffffffffff16826040015173ffffffffffffffffffffffffffffffffffffffff161115610b335781600001516040518060400160405280600781526020017f70617469656e7400000000000000000000000000000000000000000000000000815250935093505050610bd9565b600073ffffffffffffffffffffffffffffffffffffffff16816020015173ffffffffffffffffffffffffffffffffffffffff161115610bb25780600001516040518060400160405280600681526020017f646f63746f720000000000000000000000000000000000000000000000000000815250935093505050610bd9565b60405180602001604052806000815250604051806020016040528060008152509350935050505b915091565b606080610be9612e47565b83600073ffffffffffffffffffffffffffffffffffffffff16600260008373ffffffffffffffffffffffffffffffffffffffff1673ffffffffffffffffffffffffffffffffffffffff16815260200190815260200160002060010160019054906101000a900473ffffffffffffffffffffffffffffffffffffffff1673ffffffffffffffffffffffffffffffffffffffff1611610c8557600080fd5b85600073ffffffffffffffffffffffffffffffffffffffff166000808373ffffffffffffffffffffffffffffffffffffffff1673ffffffffffffffffffffffffffffffffffffffff16815260200190815260200160002060010160009054906101000a900473ffffffffffffffffffffffffffffffffffffffff1673ffffffffffffffffffffffffffffffffffffffff1611610d2057600080fd5b8685876060610d2e846106ad565b9050809150506000604051602001610d4590613be4565b6040516020818303038152906040528051906020012082604051602001610d6c9190613c2a565b6040516020818303038152906040528051906020012003610e75576000600360008573ffffffffffffffffffffffffffffffffffffffff1673ffffffffffffffffffffffffffffffffffffffff16815260200190815260200160002060008773ffffffffffffffffffffffffffffffffffffffff1673ffffffffffffffffffffffffffffffffffffffff1681526020019081526020016000205411610e1057600080fd5b600460008473ffffffffffffffffffffffffffffffffffffffff1673ffffffffffffffffffffffffffffffffffffffff168152602001908152602001600020600085815260200190815260200160002054905060008111610e7057600080fd5b610f28565b604051602001610e8490613c8d565b6040516020818303038152906040528051906020012082604051602001610eab9190613c2a565b6040516020818303038152906040528051906020012003610f2757600460008673ffffffffffffffffffffffffffffffffffffffff1673ffffffffffffffffffffffffffffffffffffffff168152602001908152602001600020600085815260200190815260200160002054905060008111610f2657600080fd5b5b5b6000600560008c8152602001908152602001600020604051806040016040529081600082018054610f5890613842565b80601f0160208091040260200160405190810160405280929190818152602001828054610f8490613842565b8015610fd15780601f10610fa657610100808354040283529160200191610fd1565b820191906000526020600020905b815481529060010190602001808311610fb457829003601f168201915b50505050508152602001600182018054610fea90613842565b80601f016020809104026020016040519081016040528092919081815260200182805461101690613842565b80156110635780601f1061103857610100808354040283529160200191611063565b820191906000526020600020905b81548152906001019060200180831161104657829003601f168201915b505050505081525050905080600001518160200151995099505050505050505050935093915050565b60008060003373ffffffffffffffffffffffffffffffffffffffff1673ffffffffffffffffffffffffffffffffffffffff1681526020019081526020016000206040518060600160405290816000820180546110e790613842565b80601f016020809104026020016040519081016040528092919081815260200182805461111390613842565b80156111605780601f1061113557610100808354040283529160200191611160565b820191906000526020600020905b81548152906001019060200180831161114357829003601f168201915b505050505081526020016001820160009054906101000a900473ffffffffffffffffffffffffffffffffffffffff1673ffffffffffffffffffffffffffffffffffffffff1673ffffffffffffffffffffffffffffffffffffffff1681526020016002820180548060200260200160405190810160405280929190818152602001828054801561124457602002820191906000526020600020905b8160009054906101000a900473ffffffffffffffffffffffffffffffffffffffff1673ffffffffffffffffffffffffffffffffffffffff16815260200190600101908083116111fa575b505050505081525050905060405160200161125e90613cc8565b60405160208183030381529060405280519060200120826040516020016112859190613c2a565b60405160208183030381529060405280519060200120036112a557600080fd5b600073ffffffffffffffffffffffffffffffffffffffff16816020015173ffffffffffffffffffffffffffffffffffffffff16146112e257600080fd5b60405180606001604052808381526020013373ffffffffffffffffffffffffffffffffffffffff168152602001600067ffffffffffffffff81111561132a576113296130d3565b5b6040519080825280602002602001820160405280156113585781602001602082028036833780820191505090505b508152506000803373ffffffffffffffffffffffffffffffffffffffff1673ffffffffffffffffffffffffffffffffffffffff16815260200190815260200160002060008201518160000190816113af9190613a29565b5060208201518160010160006101000a81548173ffffffffffffffffffffffffffffffffffffffff021916908373ffffffffffffffffffffffffffffffffffffffff1602179055506040820151816002019080519060200190611413929190612f93565b509050505050565b606080611426612e47565b83600073ffffffffffffffffffffffffffffffffffffffff16600260008373ffffffffffffffffffffffffffffffffffffffff1673ffffffffffffffffffffffffffffffffffffffff16815260200190815260200160002060010160019054906101000a900473ffffffffffffffffffffffffffffffffffffffff1673ffffffffffffffffffffffffffffffffffffffff16116114c257600080fd5b84848660606114d0846106ad565b90508091505060006040516020016114e790613be4565b604051602081830303815290604052805190602001208260405160200161150e9190613c2a565b6040516020818303038152906040528051906020012003611617576000600360008573ffffffffffffffffffffffffffffffffffffffff1673ffffffffffffffffffffffffffffffffffffffff16815260200190815260200160002060008773ffffffffffffffffffffffffffffffffffffffff1673ffffffffffffffffffffffffffffffffffffffff16815260200190815260200160002054116115b257600080fd5b600460008473ffffffffffffffffffffffffffffffffffffffff1673ffffffffffffffffffffffffffffffffffffffff16815260200190815260200160002060008581526020019081526020016000205490506000811161161257600080fd5b6116ca565b60405160200161162690613c8d565b604051602081830303815290604052805190602001208260405160200161164d9190613c2a565b60405160208183030381529060405280519060200120036116c957600460008673ffffffffffffffffffffffffffffffffffffffff1673ffffffffffffffffffffffffffffffffffffffff1681526020019081526020016000206000858152602001908152602001600020549050600081116116c857600080fd5b5b5b6000600560008b81526020019081526020016000206040518060400160405290816000820180546116fa90613842565b80601f016020809104026020016040519081016040528092919081815260200182805461172690613842565b80156117735780601f1061174857610100808354040283529160200191611773565b820191906000526020600020905b81548152906001019060200180831161175657829003601f168201915b5050505050815260200160018201805461178c90613842565b80601f01602080910402602001604051908101604052809291908181526020018280546117b890613842565b80156118055780601f106117da57610100808354040283529160200191611805565b820191906000526020600020905b8154815290600101906020018083116117e857829003601f168201915b50505050508152505090508060000151816020015198509850505050505050509250929050565b6060600080606084600073ffffffffffffffffffffffffffffffffffffffff16600260008373ffffffffffffffffffffffffffffffffffffffff1673ffffffffffffffffffffffffffffffffffffffff16815260200190815260200160002060010160019054906101000a900473ffffffffffffffffffffffffffffffffffffffff1673ffffffffffffffffffffffffffffffffffffffff16116118cf57600080fd5b33600073ffffffffffffffffffffffffffffffffffffffff166000808373ffffffffffffffffffffffffffffffffffffffff1673ffffffffffffffffffffffffffffffffffffffff16815260200190815260200160002060010160009054906101000a900473ffffffffffffffffffffffffffffffffffffffff1673ffffffffffffffffffffffffffffffffffffffff161161196a57600080fd5b6000600260008973ffffffffffffffffffffffffffffffffffffffff1673ffffffffffffffffffffffffffffffffffffffff1681526020019081526020016000206040518060a00160405290816000820180546119c690613842565b80601f01602080910402602001604051908101604052809291908181526020018280546119f290613842565b8015611a3f5780601f10611a1457610100808354040283529160200191611a3f565b820191906000526020600020905b815481529060010190602001808311611a2257829003601f168201915b505050505081526020016001820160009054906101000a900460ff1660ff1660ff1681526020016001820160019054906101000a900473ffffffffffffffffffffffffffffffffffffffff1673ffffffffffffffffffffffffffffffffffffffff1673ffffffffffffffffffffffffffffffffffffffff16815260200160028201805480602002602001604051908101604052809291908181526020018280548015611b0a57602002820191906000526020600020905b815481526020019060010190808311611af6575b5050505050815260200160038201805480602002602001604051908101604052809291908181526020018280548015611b9857602002820191906000526020600020905b8160009054906101000a900473ffffffffffffffffffffffffffffffffffffffff1673ffffffffffffffffffffffffffffffffffffffff1681526020019060010190808311611b4e575b50505050508152505090506000600360008a73ffffffffffffffffffffffffffffffffffffffff1673ffffffffffffffffffffffffffffffffffffffff16815260200190815260200160002060003373ffffffffffffffffffffffffffffffffffffffff1673ffffffffffffffffffffffffffffffffffffffff1681526020019081526020016000205411611c2c57600080fd5b806000015181602001518260400151836060015196509650965096505050509193509193565b33600073ffffffffffffffffffffffffffffffffffffffff16600260008373ffffffffffffffffffffffffffffffffffffffff1673ffffffffffffffffffffffffffffffffffffffff16815260200190815260200160002060010160019054906101000a900473ffffffffffffffffffffffffffffffffffffffff1673ffffffffffffffffffffffffffffffffffffffff1611611cee57600080fd5b81600073ffffffffffffffffffffffffffffffffffffffff166000808373ffffffffffffffffffffffffffffffffffffffff1673ffffffffffffffffffffffffffffffffffffffff16815260200190815260200160002060010160009054906101000a900473ffffffffffffffffffffffffffffffffffffffff1673ffffffffffffffffffffffffffffffffffffffff1611611d8957600080fd5b6000600260003373ffffffffffffffffffffffffffffffffffffffff1673ffffffffffffffffffffffffffffffffffffffff1681526020019081526020016000206040518060a0016040529081600082018054611de590613842565b80601f0160208091040260200160405190810160405280929190818152602001828054611e1190613842565b8015611e5e5780601f10611e3357610100808354040283529160200191611e5e565b820191906000526020600020905b815481529060010190602001808311611e4157829003601f168201915b505050505081526020016001820160009054906101000a900460ff1660ff1660ff1681526020016001820160019054906101000a900473ffffffffffffffffffffffffffffffffffffffff1673ffffffffffffffffffffffffffffffffffffffff1673ffffffffffffffffffffffffffffffffffffffff16815260200160028201805480602002602001604051908101604052809291908181526020018280548015611f2957602002820191906000526020600020905b815481526020019060010190808311611f15575b5050505050815260200160038201805480602002602001604051908101604052809291908181526020018280548015611fb757602002820191906000526020600020905b8160009054906101000a900473ffffffffffffffffffffffffffffffffffffffff1673ffffffffffffffffffffffffffffffffffffffff1681526020019060010190808311611f6d575b505050505081525050905060008060008673ffffffffffffffffffffffffffffffffffffffff1673ffffffffffffffffffffffffffffffffffffffff16815260200190815260200160002060405180606001604052908160008201805461201d90613842565b80601f016020809104026020016040519081016040528092919081815260200182805461204990613842565b80156120965780601f1061206b57610100808354040283529160200191612096565b820191906000526020600020905b81548152906001019060200180831161207957829003601f168201915b505050505081526020016001820160009054906101000a900473ffffffffffffffffffffffffffffffffffffffff1673ffffffffffffffffffffffffffffffffffffffff1673ffffffffffffffffffffffffffffffffffffffff1681526020016002820180548060200260200160405190810160405280929190818152602001828054801561217a57602002820191906000526020600020905b8160009054906101000a900473ffffffffffffffffffffffffffffffffffffffff1673ffffffffffffffffffffffffffffffffffffffff1681526020019060010190808311612130575b50505050508152505090506000600360003373ffffffffffffffffffffffffffffffffffffffff1673ffffffffffffffffffffffffffffffffffffffff16815260200190815260200160002060008773ffffffffffffffffffffffffffffffffffffffff1673ffffffffffffffffffffffffffffffffffffffff168152602001908152602001600020541461220e57600080fd5b8482608001518360800151518151811061222b5761222a613afb565b5b602002602001019073ffffffffffffffffffffffffffffffffffffffff16908173ffffffffffffffffffffffffffffffffffffffff168152505060018260800151516122779190613b59565b600360003373ffffffffffffffffffffffffffffffffffffffff1673ffffffffffffffffffffffffffffffffffffffff16815260200190815260200160002060008773ffffffffffffffffffffffffffffffffffffffff1673ffffffffffffffffffffffffffffffffffffffff168152602001908152602001600020819055503381604001518260400151518151811061231457612313613afb565b5b602002602001019073ffffffffffffffffffffffffffffffffffffffff16908173ffffffffffffffffffffffffffffffffffffffff16815250505050505050565b61235d612e47565b6123676000612ec5565b565b6000600660009054906101000a900473ffffffffffffffffffffffffffffffffffffffff16905090565b60608033600073ffffffffffffffffffffffffffffffffffffffff166000808373ffffffffffffffffffffffffffffffffffffffff1673ffffffffffffffffffffffffffffffffffffffff16815260200190815260200160002060010160009054906101000a900473ffffffffffffffffffffffffffffffffffffffff1673ffffffffffffffffffffffffffffffffffffffff161161243157600080fd5b60008060003373ffffffffffffffffffffffffffffffffffffffff1673ffffffffffffffffffffffffffffffffffffffff16815260200190815260200160002060405180606001604052908160008201805461248c90613842565b80601f01602080910402602001604051908101604052809291908181526020018280546124b890613842565b80156125055780601f106124da57610100808354040283529160200191612505565b820191906000526020600020905b8154815290600101906020018083116124e857829003601f168201915b505050505081526020016001820160009054906101000a900473ffffffffffffffffffffffffffffffffffffffff1673ffffffffffffffffffffffffffffffffffffffff1673ffffffffffffffffffffffffffffffffffffffff168152602001600282018054806020026020016040519081016040528092919081815260200182805480156125e957602002820191906000526020600020905b8160009054906101000a900473ffffffffffffffffffffffffffffffffffffffff1673ffffffffffffffffffffffffffffffffffffffff168152602001906001019080831161259f575b5050505050815250509050806000015181604001519350935050509091565b6060600060608033600073ffffffffffffffffffffffffffffffffffffffff16600260008373ffffffffffffffffffffffffffffffffffffffff1673ffffffffffffffffffffffffffffffffffffffff16815260200190815260200160002060010160019054906101000a900473ffffffffffffffffffffffffffffffffffffffff1673ffffffffffffffffffffffffffffffffffffffff16116126ab57600080fd5b6000600260003373ffffffffffffffffffffffffffffffffffffffff1673ffffffffffffffffffffffffffffffffffffffff1681526020019081526020016000206040518060a001604052908160008201805461270790613842565b80601f016020809104026020016040519081016040528092919081815260200182805461273390613842565b80156127805780601f1061275557610100808354040283529160200191612780565b820191906000526020600020905b81548152906001019060200180831161276357829003601f168201915b505050505081526020016001820160009054906101000a900460ff1660ff1660ff1681526020016001820160019054906101000a900473ffffffffffffffffffffffffffffffffffffffff1673ffffffffffffffffffffffffffffffffffffffff1673ffffffffffffffffffffffffffffffffffffffff1681526020016002820180548060200260200160405190810160405280929190818152602001828054801561284b57602002820191906000526020600020905b815481526020019060010190808311612837575b50505050508152602001600382018054806020026020016040519081016040528092919081815260200182805480156128d957602002820191906000526020600020905b8160009054906101000a900473ffffffffffffffffffffffffffffffffffffffff1673ffffffffffffffffffffffffffffffffffffffff168152602001906001019080831161288f575b505050505081525050905080600001518160200151826080015183606001519550955095509550505090919293565b6000600260003373ffffffffffffffffffffffffffffffffffffffff1673ffffffffffffffffffffffffffffffffffffffff1681526020019081526020016000206040518060a001604052908160008201805461296490613842565b80601f016020809104026020016040519081016040528092919081815260200182805461299090613842565b80156129dd5780601f106129b2576101008083540402835291602001916129dd565b820191906000526020600020905b8154815290600101906020018083116129c057829003601f168201915b505050505081526020016001820160009054906101000a900460ff1660ff1660ff1681526020016001820160019054906101000a900473ffffffffffffffffffffffffffffffffffffffff1673ffffffffffffffffffffffffffffffffffffffff1673ffffffffffffffffffffffffffffffffffffffff16815260200160028201805480602002602001604051908101604052809291908181526020018280548015612aa857602002820191906000526020600020905b815481526020019060010190808311612a94575b5050505050815260200160038201805480602002602001604051908101604052809291908181526020018280548015612b3657602002820191906000526020600020905b8160009054906101000a900473ffffffffffffffffffffffffffffffffffffffff1673ffffffffffffffffffffffffffffffffffffffff1681526020019060010190808311612aec575b505050505081525050905060008260ff16118015612b57575060648260ff16105b8015612bad5750604051602001612b6d90613cc8565b6040516020818303038152906040528051906020012083604051602001612b949190613c2a565b6040516020818303038152906040528051906020012014155b612bb657600080fd5b600073ffffffffffffffffffffffffffffffffffffffff16816040015173ffffffffffffffffffffffffffffffffffffffff1614612bf357600080fd5b6040518060a001604052808481526020018360ff1681526020013373ffffffffffffffffffffffffffffffffffffffff168152602001600067ffffffffffffffff811115612c4457612c436130d3565b5b604051908082528060200260200182016040528015612c725781602001602082028036833780820191505090505b508152602001600067ffffffffffffffff811115612c9357612c926130d3565b5b604051908082528060200260200182016040528015612cc15781602001602082028036833780820191505090505b50815250600260003373ffffffffffffffffffffffffffffffffffffffff1673ffffffffffffffffffffffffffffffffffffffff1681526020019081526020016000206000820151816000019081612d199190613a29565b5060208201518160010160006101000a81548160ff021916908360ff16021790555060408201518160010160016101000a81548173ffffffffffffffffffffffffffffffffffffffff021916908373ffffffffffffffffffffffffffffffffffffffff1602179055506060820151816002019080519060200190612d9e92919061301d565b506080820151816003019080519060200190612dbb929190612f93565b50905050505050565b612dcc612e47565b600073ffffffffffffffffffffffffffffffffffffffff168173ffffffffffffffffffffffffffffffffffffffff1603612e3b576040517f08c379a0000000000000000000000000000000000000000000000000000000008152600401612e3290613d4f565b60405180910390fd5b612e4481612ec5565b50565b612e4f612f8b565b73ffffffffffffffffffffffffffffffffffffffff16612e6d612369565b73ffffffffffffffffffffffffffffffffffffffff1614612ec3576040517f08c379a0000000000000000000000000000000000000000000000000000000008152600401612eba90613dbb565b60405180910390fd5b565b6000600660009054906101000a900473ffffffffffffffffffffffffffffffffffffffff16905081600660006101000a81548173ffffffffffffffffffffffffffffffffffffffff021916908373ffffffffffffffffffffffffffffffffffffffff1602179055508173ffffffffffffffffffffffffffffffffffffffff168173ffffffffffffffffffffffffffffffffffffffff167f8be0079c531659141344cd1fd0a4f28419497f9722a3daafe3b4186f6b6457e060405160405180910390a35050565b600033905090565b82805482825590600052602060002090810192821561300c579160200282015b8281111561300b5782518260006101000a81548173ffffffffffffffffffffffffffffffffffffffff021916908373ffffffffffffffffffffffffffffffffffffffff16021790555091602001919060010190612fb3565b5b509050613019919061306a565b5090565b828054828255906000526020600020908101928215613059579160200282015b8281111561305857825182559160200191906001019061303d565b5b5090506130669190613087565b5090565b5b8082111561308357600081600090555060010161306b565b5090565b5b808211156130a0576000816000905550600101613088565b5090565b6000604051905090565b600080fd5b600080fd5b600080fd5b600080fd5b6000601f19601f8301169050919050565b7f4e487b7100000000000000000000000000000000000000000000000000000000600052604160045260246000fd5b61310b826130c2565b810181811067ffffffffffffffff8211171561312a576131296130d3565b5b80604052505050565b600061313d6130a4565b90506131498282613102565b919050565b600067ffffffffffffffff821115613169576131686130d3565b5b613172826130c2565b9050602081019050919050565b82818337600083830152505050565b60006131a161319c8461314e565b613133565b9050828152602081018484840111156131bd576131bc6130bd565b5b6131c884828561317f565b509392505050565b600082601f8301126131e5576131e46130b8565b5b81356131f584826020860161318e565b91505092915050565b6000819050919050565b613211816131fe565b811461321c57600080fd5b50565b60008135905061322e81613208565b92915050565b60008060006060848603121561324d5761324c6130ae565b5b600084013567ffffffffffffffff81111561326b5761326a6130b3565b5b613277868287016131d0565b935050602084013567ffffffffffffffff811115613298576132976130b3565b5b6132a4868287016131d0565b92505060406132b58682870161321f565b9150509250925092565b600073ffffffffffffffffffffffffffffffffffffffff82169050919050565b60006132ea826132bf565b9050919050565b6132fa816132df565b811461330557600080fd5b50565b600081359050613317816132f1565b92915050565b600060208284031215613333576133326130ae565b5b600061334184828501613308565b91505092915050565b600081519050919050565b600082825260208201905092915050565b60005b83811015613384578082015181840152602081019050613369565b83811115613393576000848401525b50505050565b60006133a48261334a565b6133ae8185613355565b93506133be818560208601613366565b6133c7816130c2565b840191505092915050565b600060408201905081810360008301526133ec8185613399565b905081810360208301526134008184613399565b90509392505050565b600080600060608486031215613422576134216130ae565b5b600061343086828701613308565b935050602061344186828701613308565b92505060406134528682870161321f565b9150509250925092565b600060208284031215613472576134716130ae565b5b600082013567ffffffffffffffff8111156134905761348f6130b3565b5b61349c848285016131d0565b91505092915050565b600080604083850312156134bc576134bb6130ae565b5b60006134ca85828601613308565b92505060206134db8582860161321f565b9150509250929050565b600060ff82169050919050565b6134fb816134e5565b82525050565b61350a816132df565b82525050565b600081519050919050565b600082825260208201905092915050565b6000819050602082019050919050565b613545816131fe565b82525050565b6000613557838361353c565b60208301905092915050565b6000602082019050919050565b600061357b82613510565b613585818561351b565b93506135908361352c565b8060005b838110156135c15781516135a8888261354b565b97506135b383613563565b925050600181019050613594565b5085935050505092915050565b600060808201905081810360008301526135e88187613399565b90506135f760208301866134f2565b6136046040830185613501565b81810360608301526136168184613570565b905095945050505050565b60006020820190506136366000830184613501565b92915050565b600081519050919050565b600082825260208201905092915050565b6000819050602082019050919050565b613671816132df565b82525050565b60006136838383613668565b60208301905092915050565b6000602082019050919050565b60006136a78261363c565b6136b18185613647565b93506136bc83613658565b8060005b838110156136ed5781516136d48882613677565b97506136df8361368f565b9250506001810190506136c0565b5085935050505092915050565b600060408201905081810360008301526137148185613399565b90508181036020830152613728818461369c565b90509392505050565b6000608082019050818103600083015261374b8187613399565b905061375a60208301866134f2565b818103604083015261376c818561369c565b905081810360608301526137808184613570565b905095945050505050565b613794816134e5565b811461379f57600080fd5b50565b6000813590506137b18161378b565b92915050565b600080604083850312156137ce576137cd6130ae565b5b600083013567ffffffffffffffff8111156137ec576137eb6130b3565b5b6137f8858286016131d0565b9250506020613809858286016137a2565b9150509250929050565b7f4e487b7100000000000000000000000000000000000000000000000000000000600052602260045260246000fd5b6000600282049050600182168061385a57607f821691505b60208210810361386d5761386c613813565b5b50919050565b60008190508160005260206000209050919050565b60006020601f8301049050919050565b600082821b905092915050565b6000600883026138d57fffffffffffffffffffffffffffffffffffffffffffffffffffffffffffffffff82613898565b6138df8683613898565b95508019841693508086168417925050509392505050565b6000819050919050565b6000819050919050565b600061392661392161391c846138f7565b613901565b6138f7565b9050919050565b6000819050919050565b6139408361390b565b61395461394c8261392d565b8484546138a5565b825550505050565b600090565b61396961395c565b613974818484613937565b505050565b5b818110156139985761398d600082613961565b60018101905061397a565b5050565b601f8211156139dd576139ae81613873565b6139b784613888565b810160208510156139c6578190505b6139da6139d285613888565b830182613979565b50505b505050565b600082821c905092915050565b6000613a00600019846008026139e2565b1980831691505092915050565b6000613a1983836139ef565b9150826002028217905092915050565b613a328261334a565b67ffffffffffffffff811115613a4b57613a4a6130d3565b5b613a558254613842565b613a6082828561399c565b600060209050601f831160018114613a935760008415613a81578287015190505b613a8b8582613a0d565b865550613af3565b601f198416613aa186613873565b60005b82811015613ac957848901518255600182019150602085019450602081019050613aa4565b86831015613ae65784890151613ae2601f8916826139ef565b8355505b6001600288020188555050505b505050505050565b7f4e487b7100000000000000000000000000000000000000000000000000000000600052603260045260246000fd5b7f4e487b7100000000000000000000000000000000000000000000000000000000600052601160045260246000fd5b6000613b64826138f7565b9150613b6f836138f7565b925082821015613b8257613b81613b2a565b5b828203905092915050565b600081905092915050565b7f646f63746f720000000000000000000000000000000000000000000000000000600082015250565b6000613bce600683613b8d565b9150613bd982613b98565b600682019050919050565b6000613bef82613bc1565b9150819050919050565b6000613c048261334a565b613c0e8185613b8d565b9350613c1e818560208601613366565b80840191505092915050565b6000613c368284613bf9565b915081905092915050565b7f70617469656e7400000000000000000000000000000000000000000000000000600082015250565b6000613c77600783613b8d565b9150613c8282613c41565b600782019050919050565b6000613c9882613c6a565b9150819050919050565b50565b6000613cb2600083613b8d565b9150613cbd82613ca2565b600082019050919050565b6000613cd382613ca5565b9150819050919050565b7f4f776e61626c653a206e6577206f776e657220697320746865207a65726f206160008201527f6464726573730000000000000000000000000000000000000000000000000000602082015250565b6000613d39602683613355565b9150613d4482613cdd565b604082019050919050565b60006020820190508181036000830152613d6881613d2c565b9050919050565b7f4f776e61626c653a2063616c6c6572206973206e6f7420746865206f776e6572600082015250565b6000613da5602083613355565b9150613db082613d6f565b602082019050919050565b60006020820190508181036000830152613dd481613d98565b905091905056fea2646970667358221220f949569f1e040178a5261dc45a9c249cc40bbec642a74bd72137a14e44b488a464736f6c634300080f0033",
  "immutableReferences": {},
  "source": "//SPDX-License-Identifier: UNLICENSED\npragma solidity ^0.8.0;\n\nimport \"./Doctor.sol\";\nimport \"./Patient.sol\";\nimport \"./Record.sol\";\nimport \"../node_modules/@openzeppelin/contracts/access/Ownable.sol\";\n\ncontract HealthRecords is Doctor, Patient, Record, Ownable {\n    address private Owner;\n\n    constructor() {\n        Owner = msg.sender;\n    }\n\n    modifier fileAccess(\n        address id,\n        bytes32 fileHash,\n        address patient\n    ) {\n        string memory role;\n        (, role) = checkUser(id);\n        uint256 index;\n        if (\n            keccak256(abi.encodePacked(role)) ==\n            keccak256(abi.encodePacked(\"doctor\"))\n        ) {\n            require(patToDoc[patient][id] > 0);\n            index = patToRecord[patient][fileHash];\n            require(index > 0);\n        } else if (\n            keccak256(abi.encodePacked(role)) ==\n            keccak256(abi.encodePacked(\"patient\"))\n        ) {\n            index = patToRecord[id][fileHash];\n            require(index > 0);\n        }\n        _;\n    }\n\n    function checkUser(address _user)\n        public\n        view\n        onlyOwner\n        returns (string memory, string memory)\n    {\n        pat memory p = patientList[_user];\n        doc memory d = doctorsList[_user];\n        if (p.pat_addr > address(0)) return (p.name, \"patient\");\n        else if (d.doc_addr > address(0)) return (d.name, \"doctor\");\n        return (\"\", \"\");\n    }\n\n    function docToPatAccess(address docid)\n        public\n        checkPat(msg.sender)\n        checkDoc(docid)\n    {\n        pat memory p = patientList[msg.sender];\n        doc memory d = doctorsList[docid];\n        require(patToDoc[msg.sender][docid] == 0);\n        p.doctors[p.doctors.length] = docid;\n        patToDoc[msg.sender][docid] = p.doctors.length - 1;\n        d.patients[d.patients.length] = msg.sender;\n    }\n\n    function addRecord(\n        string memory _fname,\n        string memory _ftype,\n        bytes32 _fileHash\n    ) public checkPat(msg.sender) {\n        pat memory p = patientList[msg.sender];\n        require(patToRecord[msg.sender][_fileHash] == 0);\n        filesList[_fileHash] = file({fileName: _fname, fileType: _ftype});\n        p.records[p.records.length] = _fileHash;\n        patToRecord[msg.sender][_fileHash] = p.records.length - 1;\n    }\n\n    function getPatientForDoc(address pat_addr)\n        public\n        view\n        checkPat(pat_addr)\n        checkDoc(msg.sender)\n        returns (\n            string memory,\n            uint8,\n            address,\n            bytes32[] memory\n        )\n    {\n        pat memory p = patientList[pat_addr];\n        require(patToDoc[pat_addr][msg.sender] > 0);\n        return (p.name, p.age, p.pat_addr, p.records);\n    }\n\n    function getFileForDoc(\n        address docid,\n        address patid,\n        bytes32 fileHash\n    )\n        public\n        view\n        onlyOwner\n        checkPat(patid)\n        checkDoc(docid)\n        fileAccess(docid, fileHash, patid)\n        returns (string memory, string memory)\n    {\n        file memory f = filesList[fileHash];\n        return (f.fileName, f.fileType);\n    }\n\n    function getFileForPat(address patid, bytes32 fileHash)\n        public\n        view\n        onlyOwner\n        checkPat(patid)\n        fileAccess(patid, fileHash, patid)\n        returns (string memory, string memory)\n    {\n        file memory f = filesList[fileHash];\n        return (f.fileName, f.fileType);\n    }\n}\n",
  "sourcePath": "/mnt/776bb667-73ee-4fb6-b4b7-3537a71ffebf/Dev/Blockchain/HealthRecords1/contracts/HealthRecords.sol",
  "compiler": {
    "name": "solc",
    "version": "0.8.15+commit.e14f2714.Emscripten.clang"
  },
  "schemaVersion": "3.4.9",
  "updatedAt": "2022-09-05T22:02:05.246Z",
  "devdoc": {
    "kind": "dev",
    "methods": {
      "owner()": {
        "details": "Returns the address of the current owner."
      },
      "renounceOwnership()": {
        "details": "Leaves the contract without owner. It will not be possible to call `onlyOwner` functions anymore. Can only be called by the current owner. NOTE: Renouncing ownership will leave the contract without an owner, thereby removing any functionality that is only available to the owner."
      },
      "transferOwnership(address)": {
        "details": "Transfers ownership of the contract to a new account (`newOwner`). Can only be called by the current owner."
      }
    },
    "version": 1
  },
  "userdoc": {
    "kind": "user",
    "methods": {},
    "version": 1
  }
}