{
  "contractName": "Patient",
  "abi": [
    {
      "inputs": [],
      "name": "patInfo",
      "outputs": [
        {
          "internalType": "string",
          "name": "",
          "type": "string"
        },
        {
          "internalType": "uint8",
          "name": "",
          "type": "uint8"
        },
        {
          "internalType": "address[]",
          "name": "",
          "type": "address[]"
        },
        {
          "internalType": "bytes32[]",
          "name": "",
          "type": "bytes32[]"
        }
      ],
      "stateMutability": "view",
      "type": "function"
    },
    {
      "inputs": [
        {
          "internalType": "string",
          "name": "_name",
          "type": "string"
        },
        {
          "internalType": "uint8",
          "name": "_age",
          "type": "uint8"
        }
      ],
      "name": "newPatient",
      "outputs": [],
      "stateMutability": "nonpayable",
      "type": "function"
    }
  ],
  "bytecode": "0x608060405234801561001057600080fd5b50611185806100206000396000f3fe608060405234801561001057600080fd5b50600436106100365760003560e01c8063bb02ac7d1461003b578063bb4af85f1461005c575b600080fd5b610043610078565b6040516100539493929190610bae565b60405180910390f35b61007660048036038101906100719190610d7d565b610376565b005b6060600060608033600073ffffffffffffffffffffffffffffffffffffffff166000808373ffffffffffffffffffffffffffffffffffffffff1673ffffffffffffffffffffffffffffffffffffffff16815260200190815260200160002060010160019054906101000a900473ffffffffffffffffffffffffffffffffffffffff1673ffffffffffffffffffffffffffffffffffffffff161161011a57600080fd5b60008060003373ffffffffffffffffffffffffffffffffffffffff1673ffffffffffffffffffffffffffffffffffffffff1681526020019081526020016000206040518060a001604052908160008201805461017590610e08565b80601f01602080910402602001604051908101604052809291908181526020018280546101a190610e08565b80156101ee5780601f106101c3576101008083540402835291602001916101ee565b820191906000526020600020905b8154815290600101906020018083116101d157829003601f168201915b505050505081526020016001820160009054906101000a900460ff1660ff1660ff1681526020016001820160019054906101000a900473ffffffffffffffffffffffffffffffffffffffff1673ffffffffffffffffffffffffffffffffffffffff1673ffffffffffffffffffffffffffffffffffffffff168152602001600282018054806020026020016040519081016040528092919081815260200182805480156102b957602002820191906000526020600020905b8154815260200190600101908083116102a5575b505050505081526020016003820180548060200260200160405190810160405280929190818152602001828054801561034757602002820191906000526020600020905b8160009054906101000a900473ffffffffffffffffffffffffffffffffffffffff1673ffffffffffffffffffffffffffffffffffffffff16815260200190600101908083116102fd575b505050505081525050905080600001518160200151826080015183606001519550955095509550505090919293565b60008060003373ffffffffffffffffffffffffffffffffffffffff1673ffffffffffffffffffffffffffffffffffffffff1681526020019081526020016000206040518060a00160405290816000820180546103d190610e08565b80601f01602080910402602001604051908101604052809291908181526020018280546103fd90610e08565b801561044a5780601f1061041f5761010080835404028352916020019161044a565b820191906000526020600020905b81548152906001019060200180831161042d57829003601f168201915b505050505081526020016001820160009054906101000a900460ff1660ff1660ff1681526020016001820160019054906101000a900473ffffffffffffffffffffffffffffffffffffffff1673ffffffffffffffffffffffffffffffffffffffff1673ffffffffffffffffffffffffffffffffffffffff1681526020016002820180548060200260200160405190810160405280929190818152602001828054801561051557602002820191906000526020600020905b815481526020019060010190808311610501575b50505050508152602001600382018054806020026020016040519081016040528092919081815260200182805480156105a357602002820191906000526020600020905b8160009054906101000a900473ffffffffffffffffffffffffffffffffffffffff1673ffffffffffffffffffffffffffffffffffffffff1681526020019060010190808311610559575b505050505081525050905060008260ff161180156105c4575060648260ff16105b801561061a57506040516020016105da90610e6a565b60405160208183030381529060405280519060200120836040516020016106019190610eb0565b6040516020818303038152906040528051906020012014155b61062357600080fd5b600073ffffffffffffffffffffffffffffffffffffffff16816040015173ffffffffffffffffffffffffffffffffffffffff161461066057600080fd5b6040518060a001604052808481526020018360ff1681526020013373ffffffffffffffffffffffffffffffffffffffff168152602001600067ffffffffffffffff8111156106b1576106b0610c26565b5b6040519080825280602002602001820160405280156106df5781602001602082028036833780820191505090505b508152602001600067ffffffffffffffff811115610700576106ff610c26565b5b60405190808252806020026020018201604052801561072e5781602001602082028036833780820191505090505b508152506000803373ffffffffffffffffffffffffffffffffffffffff1673ffffffffffffffffffffffffffffffffffffffff1681526020019081526020016000206000820151816000019081610785919061107d565b5060208201518160010160006101000a81548160ff021916908360ff16021790555060408201518160010160016101000a81548173ffffffffffffffffffffffffffffffffffffffff021916908373ffffffffffffffffffffffffffffffffffffffff160217905550606082015181600201908051906020019061080a929190610830565b50608082015181600301908051906020019061082792919061087d565b50905050505050565b82805482825590600052602060002090810192821561086c579160200282015b8281111561086b578251825591602001919060010190610850565b5b5090506108799190610907565b5090565b8280548282559060005260206000209081019282156108f6579160200282015b828111156108f55782518260006101000a81548173ffffffffffffffffffffffffffffffffffffffff021916908373ffffffffffffffffffffffffffffffffffffffff1602179055509160200191906001019061089d565b5b5090506109039190610924565b5090565b5b80821115610920576000816000905550600101610908565b5090565b5b8082111561093d576000816000905550600101610925565b5090565b600081519050919050565b600082825260208201905092915050565b60005b8381101561097b578082015181840152602081019050610960565b8381111561098a576000848401525b50505050565b6000601f19601f8301169050919050565b60006109ac82610941565b6109b6818561094c565b93506109c681856020860161095d565b6109cf81610990565b840191505092915050565b600060ff82169050919050565b6109f0816109da565b82525050565b600081519050919050565b600082825260208201905092915050565b6000819050602082019050919050565b600073ffffffffffffffffffffffffffffffffffffffff82169050919050565b6000610a4d82610a22565b9050919050565b610a5d81610a42565b82525050565b6000610a6f8383610a54565b60208301905092915050565b6000602082019050919050565b6000610a93826109f6565b610a9d8185610a01565b9350610aa883610a12565b8060005b83811015610ad9578151610ac08882610a63565b9750610acb83610a7b565b925050600181019050610aac565b5085935050505092915050565b600081519050919050565b600082825260208201905092915050565b6000819050602082019050919050565b6000819050919050565b610b2581610b12565b82525050565b6000610b378383610b1c565b60208301905092915050565b6000602082019050919050565b6000610b5b82610ae6565b610b658185610af1565b9350610b7083610b02565b8060005b83811015610ba1578151610b888882610b2b565b9750610b9383610b43565b925050600181019050610b74565b5085935050505092915050565b60006080820190508181036000830152610bc881876109a1565b9050610bd760208301866109e7565b8181036040830152610be98185610a88565b90508181036060830152610bfd8184610b50565b905095945050505050565b6000604051905090565b600080fd5b600080fd5b600080fd5b600080fd5b7f4e487b7100000000000000000000000000000000000000000000000000000000600052604160045260246000fd5b610c5e82610990565b810181811067ffffffffffffffff82111715610c7d57610c7c610c26565b5b80604052505050565b6000610c90610c08565b9050610c9c8282610c55565b919050565b600067ffffffffffffffff821115610cbc57610cbb610c26565b5b610cc582610990565b9050602081019050919050565b82818337600083830152505050565b6000610cf4610cef84610ca1565b610c86565b905082815260208101848484011115610d1057610d0f610c21565b5b610d1b848285610cd2565b509392505050565b600082601f830112610d3857610d37610c1c565b5b8135610d48848260208601610ce1565b91505092915050565b610d5a816109da565b8114610d6557600080fd5b50565b600081359050610d7781610d51565b92915050565b60008060408385031215610d9457610d93610c12565b5b600083013567ffffffffffffffff811115610db257610db1610c17565b5b610dbe85828601610d23565b9250506020610dcf85828601610d68565b9150509250929050565b7f4e487b7100000000000000000000000000000000000000000000000000000000600052602260045260246000fd5b60006002820490506001821680610e2057607f821691505b602082108103610e3357610e32610dd9565b5b50919050565b600081905092915050565b50565b6000610e54600083610e39565b9150610e5f82610e44565b600082019050919050565b6000610e7582610e47565b9150819050919050565b6000610e8a82610941565b610e948185610e39565b9350610ea481856020860161095d565b80840191505092915050565b6000610ebc8284610e7f565b915081905092915050565b60008190508160005260206000209050919050565b60006020601f8301049050919050565b600082821b905092915050565b600060088302610f297fffffffffffffffffffffffffffffffffffffffffffffffffffffffffffffffff82610eec565b610f338683610eec565b95508019841693508086168417925050509392505050565b6000819050919050565b6000819050919050565b6000610f7a610f75610f7084610f4b565b610f55565b610f4b565b9050919050565b6000819050919050565b610f9483610f5f565b610fa8610fa082610f81565b848454610ef9565b825550505050565b600090565b610fbd610fb0565b610fc8818484610f8b565b505050565b5b81811015610fec57610fe1600082610fb5565b600181019050610fce565b5050565b601f8211156110315761100281610ec7565b61100b84610edc565b8101602085101561101a578190505b61102e61102685610edc565b830182610fcd565b50505b505050565b600082821c905092915050565b600061105460001984600802611036565b1980831691505092915050565b600061106d8383611043565b9150826002028217905092915050565b61108682610941565b67ffffffffffffffff81111561109f5761109e610c26565b5b6110a98254610e08565b6110b4828285610ff0565b600060209050601f8311600181146110e757600084156110d5578287015190505b6110df8582611061565b865550611147565b601f1984166110f586610ec7565b60005b8281101561111d578489015182556001820191506020850194506020810190506110f8565b8683101561113a5784890151611136601f891682611043565b8355505b6001600288020188555050505b50505050505056fea26469706673582212202ee534252ae47b3d58a76eebdb7a42c2f2a296b2ab4c02941132fa8e52deed7364736f6c634300080f0033",
  "immutableReferences": {},
  "source": "//SPDX-License-Identifier:UNLICENSED\npragma solidity ^0.8.0;\n\ncontract Patient {\n    struct pat {\n        string name;\n        uint8 age;\n        address pat_addr;\n        bytes32[] records;\n        address[] doctors;\n    }\n\n    mapping(address => pat) internal patientList;\n    mapping(address => mapping(address => uint256)) internal patToDoc;\n    mapping(address => mapping(bytes32 => uint256)) internal patToRecord;\n\n    modifier checkPat(address id) {\n        require(patientList[id].pat_addr > address(0));\n        _;\n    }\n\n    function patInfo()\n        public\n        view\n        checkPat(msg.sender)\n        returns (\n            string memory,\n            uint8,\n            address[] memory,\n            bytes32[] memory\n        )\n    {\n        pat memory p = patientList[msg.sender];\n        return (p.name, p.age, p.doctors, p.records);\n    }\n\n    function newPatient(string memory _name, uint8 _age) public {\n        pat memory p = patientList[msg.sender];\n        require(\n            _age > 0 &&\n                _age < 100 &&\n                keccak256(abi.encodePacked(_name)) !=\n                keccak256(abi.encodePacked(\"\"))\n        );\n        require(p.pat_addr == address(0));\n        patientList[msg.sender] = pat({\n            name: _name,\n            age: _age,\n            pat_addr: msg.sender,\n            records: new bytes32[](0),\n            doctors: new address[](0)\n        });\n    }\n}\n",
  "sourcePath": "/mnt/776bb667-73ee-4fb6-b4b7-3537a71ffebf/Dev/Blockchain/HealthRecords1/contracts/Patient.sol",
  "compiler": {
    "name": "solc",
    "version": "0.8.15+commit.e14f2714.Emscripten.clang"
  },
  "schemaVersion": "3.4.9",
  "updatedAt": "2022-09-05T22:02:05.254Z",
  "devdoc": {
    "kind": "dev",
    "methods": {},
    "version": 1
  },
  "userdoc": {
    "kind": "user",
    "methods": {},
    "version": 1
  }
}